:040000000AEF10F003
:10100000003738392F3435362A3132332D23303DED
:051010002B2569000022
:10101600FDEC10F0520E0B6E0C0E0C6E1DEC0EF06D
:101026007A6E000E7B6E5C0E096E7B0E0A6EF6EC17
:101036000BF07A6E7B50D8B423EF08F025EF08F05A
:1010460014EF08F0030E336E8A0E326E560EE82E3B
:10105600FED7322EFCD7332EFAD7520E176E010E5C
:10106600186E010E196E7BC01AF04AEC10F07A6EFB
:10107600030E336E8A0E326E560EE82EFED7322ED1
:10108600FCD7332EFAD75C0E096E780E0A6EF6EC94
:101096000BF07A6E7850D8B453EF08F055EF08F09D
:1010A60046EF08F0030E336E8A0E326E560EE82EA9
:1010B600FED7322EFCD7332EFAD7520E176E010EFC
:1010C600186E020E196E78C01AF04AEC10F07A6E9D
:1010D600030E336E8A0E326E560EE82EFED7322E71
:1010E600FCD7332EFAD75C0E096E760E0A6EF6EC36
:1010F6000BF07A6E7650D8B483EF08F085EF08F0DF
:1011060076EF08F0030E336E8A0E326E560EE82E18
:10111600FED7322EFCD7332EFAD7520E176E010E9B
:10112600186E040E196E76C01AF04AEC10F07A6E3C
:10113600030E336E8A0E326E560EE82EFED7322E10
:10114600FCD7332EFAD75C0E096E790E0A6EF6ECD2
:101156000BF07A6E7950D8B4B3EF08F0B5EF08F01B
:10116600A6EF08F0030E336E8A0E326E560EE82E88
:10117600FED7322EFCD7332EFAD7520E176E010E3B
:10118600186E060E196E79C01AF04AEC10F07A6ED7
:10119600030E336E8A0E326E560EE82EFED7322EB0
:1011A600FCD7332EFAD75C0E096E770E0A6EF6EC74
:1011B6000BF07A6E7750D8B4E3EF08F0E5EF08F05D
:1011C600D6EF08F0030E336E8A0E326E560EE82EF8
:1011D600FED7322EFCD7332EFAD7520E176E010EDB
:1011E600186E070E196E77C01AF04AEC10F07A6E78
:1011F600030E336E8A0E326E560EE82EFED7322E50
:10120600FCD7332EFAD75C0E096E750E0A6EF6EC15
:101216000BF07A6E7550D8B413EF09F015EF09F09C
:1012260006EF09F0030E336E8A0E326E560EE82E66
:10123600FED7322EFCD7332EFAD7520E176E010E7A
:10124600186E090E196E75C01AF04AEC10F07A6E17
:101256003DEF09F098EC0FF05AEF09F04AEC0FF069
:101266005AEF09F071EC0FF05AEF09F020EC0FF08D
:101276005AEF09F07650326E336A3350000AD8B40A
:1012860047EF09F05AEF09F032502A0AD8B435EF81
:1012960009F0010AD8B42DEF09F0060AD8B431EFE7
:1012A60009F0020AD8B439EF09F05AEF09F05C0EDA
:1012B600096E740E0A6EF6EC0BF07A6E7450D8B4A2
:1012C60067EF09F069EF09F05AEF09F0030E336E84
:1012D6008A0E326E560EE82EFED7322EFCD7332EED
:1012E600FAD7520E0B6E010E0C6E1DEC0EF0000EB0
:1012F6007B6E000E786E000E796E000E776E000E15
:10130600766E000E756E000E746E0DEF08F000EF2F
:1013160000F00C50D96EDA6ADFCFF6FF100EF76ECA
:101326000800F550250AD8A49BEF09F09DEF09F0B7
:1013360056EF0AF00C50D96EDA6ADF2A000E6B6E91
:10134600000E6A6E6AC070F06C686D680C50D96EDB
:10135600DA6ADF50106E10C0F6FF100EF76E080046
:10136600F550640AD8B4BAEF09F0BCEF09F0CAEF39
:1013760009F010C0F6FF100EF76E0800F550690A66
:10138600D8A4C8EF09F0CAEF09F050EF0AF00D50E3
:10139600D96EDA6A020EDF26DF5CD96EDA6ADECF34
:1013A60011F0DECF12F00C50D96EDA6A1028DF6E1B
:1013B600200E156E12BEE2EF09F0E5EF09F0010E00
:1013C600E6EF09F0000E0F6E15061550800FD96E68
:1013D600DA6A11C001F012C002F0000E046E0A0EA5
:1013E600036ECAEC0CF001C007F002C008F0A0ECD6
:1013F60010F00750300FDF6E11C001F012C002F07E
:10140600000E046E0A0E036E68EC0CF001C011F0BB
:1014160002C012F011501210D8B414EF0AF016EFF1
:101426000AF01EEF0AF01550D8A41CEF0AF01EEFC2
:101436000AF0E7EF09F01550D8B424EF0AF026EFCA
:101446000AF045EF0AF00F50D8B42CEF0AF02EEF51
:101456000AF045EF0AF015061550800FD96EDA6AC4
:101466002D0EDF6E45EF0AF01550800FD96EDA6A41
:10147600DF500E6E0E50016E026A0BC003F022ECB6
:101486000DF0152A200E1518D8A44CEF0AF04EEFD1
:101496000AF037EF0AF067EF0AF00C50D96EDA6AF5
:1014A600DF2A67EF0AF00C50D96EDA6ADFCFF6FF53
:1014B600100EF76E0800F550016E026A0BC003F0BD
:1014C60022EC0DF050EF0AF01200010E076E0150EB
:1014D600D8B470EF0AF072EF0AF082EF0AF001500A
:1014E600D96EDA6ADF30E832E832070B026E070E91
:1014F600026480EF0AF082EF0AF0D9EF0AF0000EDC
:10150600076EF9EF0AF00150D96EDA6ADF30E83279
:10151600E832070B026E010E036E022A95EF0AF0FF
:10152600D8900336022E93EF0AF00350FF0A046E9A
:101536000150D96EDA6ADF50070B020DF350480FDF
:10154600D96EDA6ADECF05F0DDCF06F005C0D9FF29
:1015560006C0DAFF0450DF16F9EF0AF00150D96E23
:10156600DA6ADF30E832E832070B026E010E036EEC
:10157600022AC0EF0AF0D8900336022EBEEF0AF018
:101586000150D96EDA6ADF50070B020DF350480F8F
:10159600D96EDA6ADECF04F0DDCF05F004C0D9FFDC
:1015A60005C0DAFF0350DF12F9EF0AF00150D96ED9
:1015B600DA6ADFBEE1EF0AF0E4EF0AF0010EE5EFCA
:1015C6000AF0000E026E036A0350000AD8B4EEEF6A
:1015D6000AF082EF0AF00250000AD8B486EF0AF049
:1015E600010AD8B4B1EF0AF082EF0AF007501200F0
:1015F600010E086E0150D8B403EF0BF005EF0BF0A7
:1016060015EF0BF00150D96EDA6ADF30E832E832B6
:10161600070B036E070E036413EF0BF015EF0BF0C9
:101626006CEF0BF0000E086E81EF0BF00150D96ED7
:10163600DA6ADF30E832E832070B036E010E046E19
:10164600032A28EF0BF0D8900436032E26EF0BF072
:101656000450FF0A056E0150D96EDA6ADF50070B97
:10166600020DF3503E0FD96EDA6ADECF06F0DDCFFB
:1016760007F006C0D9FF07C0DAFF0550DF1681EF75
:101686000BF00150D96EDA6ADF30E832E832070B28
:10169600036E010E046E032A53EF0BF0D890043646
:1016A600032E51EF0BF00150D96EDA6ADF50070BAB
:1016B600020DF3503E0FD96EDA6ADECF05F0DDCFAC
:1016C60006F005C0D9FF06C0DAFF0450DF1281EF2D
:1016D6000BF00250036E046A0450000AD8B476EF89
:1016E6000BF015EF0BF00350000AD8B419EF0BF00E
:1016F600010AD8B444EF0BF015EF0BF008501200B6
:10170600000E136E1150D8A48BEF0BF08DEF0BF07B
:1017160091EF0BF0000E146EF4EF0BF011C009F010
:10172600C3EC0EF0146E1128096EC3EC0EF0146EA5
:10173600000E136E11501324020F096EC3EC0EF047
:10174600132A070E1364AAEF0BF0ACEF0BF09DEF14
:101756000BF0340E126EF20EE82EFED7122EFCD7C8
:1017660011C00BF0380E0C6E1DEC0EF00D0E126E45
:10177600FC0EE82EFED7122EFCD711C00BF0380E49
:101786000C6E1DEC0EF0640EE82EFED711C00BF0A9
:10179600380E0C6E1DEC0EF011C00BF0010E0C6E27
:1017A6001DEC0EF011C00BF0020E0C6E1DEC0EF0CF
:1017B60011C00BF0060E0C6E1DEC0EF011C00BF0F6
:1017C6000C0E0C6E1DEC0EF011C00BF0380E0C6EEC
:1017D6001DEC0EF011C00BF0800E0C6E1DEC0EF021
:1017E600146E14501200000E0E6E000E0F6E000ED8
:1017F6000D6E000E0C6E0950D8B404EF0CF006EF17
:101806000CF00EEF0CF00A50D8A40CEF0CF00EEF13
:101816000CF010EF0CF067EF0CF0000E0E6E000EE1
:101826000D6E09500D24016E000E026EFBEC0AF0DF
:101836000D2A030E0D6422EF0CF024EF0CF014EFCA
:101846000CF009500E24016E010E026EFBEC0AF03C
:101856001A0E0B6EF80EE82EFED70B2EFCD700D014
:10186600000E0F6E09500F24040F016E0C0E026E4F
:10187600CBEC0DF00C04D8A443EF0CF045EF0CF0C4
:1018860055EF0CF00E50040DF350010F0F240B6EA4
:101896000BC0F6FF100EF76E0A50D96EDA6A080012
:1018A600F5CFDFFF0F2A030E0F645CEF0CF05EEF3F
:1018B6000CF035EF0CF00E2A030E0E6465EF0CF0FB
:1018C60067EF0CF012EF0CF01200000E066E04BE6D
:1018D60071EF0CF06FEF0CF077EF0CF0036C041E59
:1018E600D8B0042A010E066E02BE7EEF0CF07CEF25
:1018F6000CF084EF0CF0016C021ED8B0022A010E27
:10190600061A000E086E000E076E03500410D8B4B7
:101916008FEF0CF091EF0CF0B9EF0CF0010E056EA5
:1019260099EF0CF0D89003360436052A04AE9EEFE4
:101936000CF0A0EF0CF095EF0CF0D89007360836B7
:101946000350015C04500258D8A0ACEF0CF0AEEF87
:101956000CF0B3EF0CF00350015E0450025A0780FE
:10196600D89004320332052EA0EF0CF00650D8B4FE
:10197600BFEF0CF0C1EF0CF0C5EF0CF0076C081EC2
:10198600D8B0082A07C001F008C002F01200000E05
:10199600066E02BED3EF0CF0D1EF0CF0D9EF0CF0CF
:1019A600016C021ED8B0022A010E066E04BEE0EFDC
:1019B6000CF0DEEF0CF0E4EF0CF0036C041ED8B074
:1019C600042A03500410D8B4EBEF0CF0EDEF0CF042
:1019D60011EF0DF0010E056EF5EF0CF0D890033601
:1019E6000436052A04AEFAEF0CF0FCEF0CF0F1EF2A
:1019F6000CF00350015C04500258D8A005EF0DF01E
:101A060007EF0DF00BEF0DF00350015E0450025A84
:101A1600D89004320332052EFCEF0CF00650D8B4F1
:101A260017EF0DF019EF0DF01DEF0DF0016C021E12
:101A3600D8B0022A01C001F002C002F01200035021
:101A4600D8B428EF0DF02AEF0DF032EF0DF0035069
:101A5600D8A430EF0DF032EF0DF037EF0DF0015056
:101A660006EC11F076EF0DF00350D96EDA6A0A0E25
:101A7600D926DE50DE10D8B443EF0DF045EF0DF059
:101A86005EEF0DF00350D96EDA6A0A0ED9260350BE
:101A9600E16EE26A030EE126DE50E65CE650800A5D
:101AA600086EDE50800A0858D8B05CEF0DF05EEF85
:101AB6000DF076EF0DF00350D96EDA6A030ED926D3
:101AC600DF50046E0350D96EDA6ADF500424D96EF3
:101AD600DA6A01C0DFFF0350D96EDA6A030ED9262F
:101AE600DE2A000EDD221200010E166E1306ACEF82
:101AF6000DF011C00BF01350800F0C6E1DEC0EF0A4
:101B0600166E16C016F0C9EF0DF011C00BF013508B
:101B1600C00F0C6E1DEC0EF0166E16C016F0C9EF57
:101B26000DF011C00BF01350940F0C6E1DEC0EF05F
:101B3600166E16C016F0C9EF0DF011C00BF013505B
:101B4600D40F0C6E1DEC0EF0166E16C016F0C9EF13
:101B56000DF01250146E156A1550000AD8B4B6EF7F
:101B66000DF0C9EF0DF01450010AD8B47CEF0DF05A
:101B7600030AD8B488EF0DF0010AD8B494EF0DF03B
:101B8600070AD8B4A0EF0DF0C9EF0DF016501200F9
:101B9600010E076E0150D8B4D3EF0DF0D5EF0DF05E
:101BA600EDEF0DF00250D8B4DBEF0DF0DDEF0DF0E8
:101BB600EDEF0DF00150D96EDA6ADF30E832E83227
:101BC600070B036E070E0364EBEF0DF0EDEF0DF060
:101BD600F1EF0DF0000E076E1BEF0EF00250D96EFE
:101BE600DA6A0150E16EE26AE730E832E832070B62
:101BF600036E0150E16EE26AE750070B020DF350E7
:101C0600340FE16EE26AE6CF04F0E5CF05F004C0DA
:101C1600E1FF05C0E2FFE750066E032A15EF0EF05E
:101C2600D8900632032E13EF0EF00650010BDF6E2E
:101C360007501200000E106E0B50D8A425EF0EF0C0
:101C460027EF0EF02BEF0EF0000E0F6E56EF0EF094
:101C56000BC001F0000E026EFBEC0AF0000E106ED7
:101C66000B501024020F016E10C00DF00CC00EF0C8
:101C76000D2A40EF0EF0D8900E320D2E3EEF0EF0EC
:101C86000E50010B026EFBEC0AF0102A070E1064D0
:101C96004FEF0EF051EF0EF033EF0EF00BC009F0E0
:101CA600EAEC10F00F6E0F501200000E106E0B5083
:101CB600D8A460EF0EF062EF0EF066EF0EF0000EA5
:101CC6000F6E91EF0EF00BC001F0010E026EFBECF1
:101CD6000AF0000E106E0B501024020F016E10C099
:101CE6000DF00CC00EF00D2A7BEF0EF0D8900E32E0
:101CF6000D2E79EF0EF00E50010B026EFBEC0AF082
:101D0600102A070E10648AEF0EF08CEF0EF06EEFBD
:101D16000EF00BC009F0EAEC10F00F6E0F50120037
:101D2600000E0D6E000E0E6E0C50D8A49DEF0EF038
:101D36009FEF0EF0A1EF0EF0C2EF0EF0000E0D6E4B
:101D46000C500D24096EC3EC0EF00D2A030E0D6423
:101D5600AFEF0EF0B1EF0EF0A3EF0EF0000E0E6E29
:101D66000C500E24040F016E68EC0AF00E2A030EC6
:101D76000E64C0EF0EF0C2EF0EF0B3EF0EF01200DD
:101D86000950D8B4C9EF0EF0CBEF0EF0DBEF0EF032
:101D96000950D96EDA6ADF30E832E832070B0A6E8C
:101DA600070E0A64D9EF0EF0DBEF0EF0DFEF0EF050
:101DB600000E0B6EF0EF0EF009C001F068EC0AF0B1
:101DC6000B6E09C001F00950D96EDA6A000EDFBC4D
:101DD600010E026EFBEC0AF00B6E0B501200026E47
:101DE600000E046E0150D8B4FBEF0EF0FDEF0EF0BE
:101DF6001EEF0FF0010E036E04EF0FF0D8900136C0
:101E0600032A01AE09EF0FF00BEF0FF001EF0FF011
:101E1600D89004360150025CD8A014EF0FF016EFEC
:101E26000FF019EF0FF00150025E0480D8900132D6
:101E3600032E0BEF0FF0045012007B500A0DF350E7
:101E46007824F00F306E79500A0DF3507724F00F96
:101E5600316E31C001F03050F2EC0EF02F6E2F5083
:101E66006E6E6F6A6EC02BF06FC02CF0720E2D6E08
:101E7600E4EC0FF07A6E520E176E010E186E0B0E12
:101E8600196E720E1A6E68EC10F07A6E12007B50A4
:101E96000A0DF3507824F00F2F6E79500A0DF35087
:101EA6007724F00F306E30502F5C6E6E6F6AD8A0BC
:101EB6006F066EC02BF06FC02CF0720E2D6EE4EC28
:101EC6000FF07A6E520E176E010E186E0B0E196E0B
:101ED600720E1A6E68EC10F07A6E12007B500A0DC4
:101EE600F3507824F00F2F6E79500A0DF3507724B3
:101EF600F00F306E2F503002F3CF6EF0F4CF6FF04C
:101F06006EC02BF06FC02CF0720E2D6EE4EC0FF04D
:101F16007A6E520E176E010E186E0B0E196E720E39
:101F26001A6E68EC10F07A6E12007B500A0DF350B0
:101F36007824F00F2F6E79500A0DF3507724F00FA6
:101F4600306E2F5030246E6E6F6A6F366EC02BF077
:101F56006FC02CF0720E2D6EE4EC0FF07A6E520EFE
:101F6600176E010E186E0B0E196E720E1A6E68EC55
:101F760010F07A6E1200010E136E1150D8A4C6EF3F
:101F86000FF0C8EF0FF0D7EF0FF0000E136EE2EF71
:101F96000FF011C00BF01250D96EDA6ADF500C6EDA
:101FA60058EC0EF0136E122A1250D96EDA6ADF5010
:101FB600D8A4E0EF0FF0E2EF0FF0CCEF0FF01350E4
:101FC6001200010E2E6E2D50D8A4ECEF0FF0EEEF9E
:101FD6000FF0F2EF0FF0000E2E6E08EF10F02DC08E
:101FE60001F0000E036E000E026E000E056E0B0E63
:101FF600046ED2EC10F02DC01AF0110E1B6E2BC021
:102006001CF02CC01DF086EC10F02E501200740E41
:10201600F66E210EF76E000EF86E00EE34F010EE3E
:1020260030F00900F5CFEEFFE550E150FAE100EEA1
:1020360080F0200EEE6AE806FDE100EE64F0160E72
:10204600EE6AE806FDE1000EF86E00010BEF08F0FF
:1020560017C019F037EF10F016C00BF0190E0C6E02
:1020660018C00DF08CEC09F019C0F6FF100EF76ED3
:102076000800F5500009D8A443EF10F045EF10F022
:102086002FEF10F0000E176E000E166E120017508E
:10209600D8A450EF10F052EF10F056EF10F0000EEB
:1020A6001B6E66EF10F017C011F018C012F019C0C1
:1020B60013F077EC0DF01B6E17C00BF01AC00CF086
:1020C60058EC0EF01B6E1B5012001750D8A46EEF82
:1020D60010F070EF10F074EF10F0000E1B6E84EF2E
:1020E60010F017C011F018C012F019C013F077ECF9
:1020F6000DF01B6E17C011F01AC012F0BEEC0FF0F7
:102106001B6E1B5012001C0E1E6E1AC01FF0000E16
:10211600236E000E226E000E2A6E000E296E1F0E12
:10212600166E1BC017F01E0E186E2BEC10F01A5010
:102136002224D96EDA6ADF6A120008BEA5EF10F013
:10214600A7EF10F0ADEF10F007C007F008C008F0D9
:10215600B9EF10F007C009F008C00AF0091E0A1E00
:10216600094A0A2A09C007F00AC008F01200800FBF
:10217600810F820F830F840F890F8A0F8B0F8C0FAD
:102186008D0F920F930F940F950F960F0109020A68
:10219600121A222A323A030B131BA3ABB3BB01C09C
:1021A60006F0DCEF10F00650D96EDA6A02C0DFFFE7
:1021B600062A0406D8A00506042806E10528D8A4A0
:1021C600E7EF10F0E9EF10F0D6EF10F01200092853
:1021D600016E010E026EFBEC0AF0030EE82EFED72E
:1021E60000000928016E000E026EFBEC0AF00A6E72
:1021F6000A501200520E116E83EC0BF05C0E0C6E40
:0822060093EC0EF0120012002F
:00000001FF
